{
  "contractName": "SeedCertifi",
  "abi": [
    {
      "inputs": [],
      "payable": false,
      "stateMutability": "nonpayable",
      "type": "constructor"
    },
    {
      "anonymous": false,
      "inputs": [
        {
          "indexed": false,
          "internalType": "uint256",
          "name": "cert_no",
          "type": "uint256"
        },
        {
          "indexed": false,
          "internalType": "string",
          "name": "cert",
          "type": "string"
        },
        {
          "indexed": false,
          "internalType": "string",
          "name": "validity",
          "type": "string"
        },
        {
          "indexed": false,
          "internalType": "uint256",
          "name": "seed_id",
          "type": "uint256"
        },
        {
          "indexed": false,
          "internalType": "uint256",
          "name": "seed_lot",
          "type": "uint256"
        }
      ],
      "name": "certifi",
      "type": "event"
    },
    {
      "constant": true,
      "inputs": [
        {
          "internalType": "uint256",
          "name": "",
          "type": "uint256"
        }
      ],
      "name": "cert",
      "outputs": [
        {
          "internalType": "uint256",
          "name": "cert_no",
          "type": "uint256"
        },
        {
          "internalType": "string",
          "name": "cert_by",
          "type": "string"
        },
        {
          "internalType": "string",
          "name": "validity",
          "type": "string"
        },
        {
          "internalType": "uint256",
          "name": "seed_id",
          "type": "uint256"
        },
        {
          "internalType": "uint256",
          "name": "seed_lot",
          "type": "uint256"
        }
      ],
      "payable": false,
      "stateMutability": "view",
      "type": "function"
    },
    {
      "constant": true,
      "inputs": [
        {
          "internalType": "uint256",
          "name": "",
          "type": "uint256"
        }
      ],
      "name": "seed",
      "outputs": [
        {
          "internalType": "uint256",
          "name": "seed_id",
          "type": "uint256"
        },
        {
          "internalType": "uint256",
          "name": "seed_lot",
          "type": "uint256"
        },
        {
          "internalType": "string",
          "name": "status",
          "type": "string"
        },
        {
          "internalType": "bool",
          "name": "entry_stat",
          "type": "bool"
        },
        {
          "internalType": "bool",
          "name": "stl_test",
          "type": "bool"
        }
      ],
      "payable": false,
      "stateMutability": "view",
      "type": "function"
    },
    {
      "constant": true,
      "inputs": [
        {
          "internalType": "uint256",
          "name": "",
          "type": "uint256"
        }
      ],
      "name": "test",
      "outputs": [
        {
          "internalType": "string",
          "name": "code",
          "type": "string"
        },
        {
          "internalType": "bool",
          "name": "test",
          "type": "bool"
        },
        {
          "internalType": "uint256",
          "name": "date",
          "type": "uint256"
        }
      ],
      "payable": false,
      "stateMutability": "view",
      "type": "function"
    },
    {
      "constant": false,
      "inputs": [
        {
          "internalType": "uint256",
          "name": "seed_id",
          "type": "uint256"
        }
      ],
      "name": "viewCert",
      "outputs": [],
      "payable": false,
      "stateMutability": "nonpayable",
      "type": "function"
    },
    {
      "constant": false,
      "inputs": [
        {
          "internalType": "uint256",
          "name": "seed_id",
          "type": "uint256"
        },
        {
          "internalType": "uint256",
          "name": "seed_lot",
          "type": "uint256"
        }
      ],
      "name": "seed_entry",
      "outputs": [],
      "payable": false,
      "stateMutability": "nonpayable",
      "type": "function"
    },
    {
      "constant": false,
      "inputs": [
        {
          "internalType": "uint256",
          "name": "id",
          "type": "uint256"
        },
        {
          "internalType": "string",
          "name": "secret_code",
          "type": "string"
        },
        {
          "internalType": "bool",
          "name": "result",
          "type": "bool"
        }
      ],
      "name": "seed_test",
      "outputs": [],
      "payable": false,
      "stateMutability": "nonpayable",
      "type": "function"
    },
    {
      "constant": false,
      "inputs": [
        {
          "internalType": "uint256",
          "name": "cert_no",
          "type": "uint256"
        },
        {
          "internalType": "string",
          "name": "cert_by",
          "type": "string"
        },
        {
          "internalType": "uint256",
          "name": "id",
          "type": "uint256"
        },
        {
          "internalType": "uint256",
          "name": "seed_lot",
          "type": "uint256"
        }
      ],
      "name": "certification",
      "outputs": [],
      "payable": false,
      "stateMutability": "nonpayable",
      "type": "function"
    }
  ],
  "bytecode": "0x60806040526040518060400160405280600881526020017f4d722e2052616a61000000000000000000000000000000000000000000000000815250600090805190602001906200005192919062000149565b506103e96001556040518060400160405280600481526020017f496e69740000000000000000000000000000000000000000000000000000000081525060029080519060200190620000a592919062000149565b506040518060400160405280600881526020017f39206d6f6e74687300000000000000000000000000000000000000000000000081525060039080519060200190620000f392919062000149565b503480156200010157600080fd5b5033600660006101000a81548173ffffffffffffffffffffffffffffffffffffffff021916908373ffffffffffffffffffffffffffffffffffffffff160217905550620001f8565b828054600181600116156101000203166002900490600052602060002090601f016020900481019282601f106200018c57805160ff1916838001178555620001bd565b82800160010185558215620001bd579182015b82811115620001bc5782518255916020019190600101906200019f565b5b509050620001cc9190620001d0565b5090565b620001f591905b80821115620001f1576000816000905550600101620001d7565b5090565b90565b61184480620002086000396000f3fe608060405234801561001057600080fd5b506004361061007d5760003560e01c8063d89360111161005b578063d8936011146102df578063f2af861514610317578063f5da918614610345578063f69154381461046d5761007d565b8063251f1d891461008257806329e99f071461015b5780639556483714610214575b600080fd5b6101596004803603608081101561009857600080fd5b8101908080359060200190929190803590602001906401000000008111156100bf57600080fd5b8201836020820111156100d157600080fd5b803590602001918460018302840111640100000000831117156100f357600080fd5b91908080601f016020809104026020016040519081016040528093929190818152602001838380828437600081840152601f19601f820116905080830192505050505050509192919290803590602001909291908035906020019092919050505061053e565b005b6101876004803603602081101561017157600080fd5b810190808035906020019092919050505061084f565b604051808060200184151515158152602001838152602001828103825285818151815260200191508051906020019080838360005b838110156101d75780820151818401526020810190506101bc565b50505050905090810190601f1680156102045780820380516001836020036101000a031916815260200191505b5094505050505060405180910390f35b6102406004803603602081101561022a57600080fd5b810190808035906020019092919050505061092b565b60405180868152602001858152602001806020018415151515815260200183151515158152602001828103825285818151815260200191508051906020019080838360005b838110156102a0578082015181840152602081019050610285565b50505050905090810190601f1680156102cd5780820380516001836020036101000a031916815260200191505b50965050505050505060405180910390f35b610315600480360360408110156102f557600080fd5b810190808035906020019092919080359060200190929190505050610a20565b005b6103436004803603602081101561032d57600080fd5b8101908080359060200190929190505050610cf8565b005b6103716004803603602081101561035b57600080fd5b81019080803590602001909291905050506110de565b604051808681526020018060200180602001858152602001848152602001838103835287818151815260200191508051906020019080838360005b838110156103c75780820151818401526020810190506103ac565b50505050905090810190601f1680156103f45780820380516001836020036101000a031916815260200191505b50838103825286818151815260200191508051906020019080838360005b8381101561042d578082015181840152602081019050610412565b50505050905090810190601f16801561045a5780820380516001836020036101000a031916815260200191505b5097505050505050505060405180910390f35b61053c6004803603606081101561048357600080fd5b8101908080359060200190929190803590602001906401000000008111156104aa57600080fd5b8201836020820111156104bc57600080fd5b803590602001918460018302840111640100000000831117156104de57600080fd5b91908080601f016020809104026020016040519081016040528093929190818152602001838380828437600081840152601f19601f820116905080830192505050505050509192919290803515159060200190929190505050611251565b005b600760009054906101000a900473ffffffffffffffffffffffffffffffffffffffff1673ffffffffffffffffffffffffffffffffffffffff163373ffffffffffffffffffffffffffffffffffffffff16141580156105ea5750600560009054906101000a900473ffffffffffffffffffffffffffffffffffffffff1673ffffffffffffffffffffffffffffffffffffffff163373ffffffffffffffffffffffffffffffffffffffff1614155b6105f357600080fd5b60008090505b60098054905081101561067657826009828154811061061457fe5b906000526020600020906004020160000154141561066957600115156009828154811061063d57fe5b906000526020600020906004020160030160019054906101000a900460ff1615151461066857600080fd5b5b80806001019150506105f9565b5033600660006101000a81548173ffffffffffffffffffffffffffffffffffffffff021916908373ffffffffffffffffffffffffffffffffffffffff16021790555060008090505b6009805490508110156108485782600982815481106106d957fe5b906000526020600020906004020160000154141561083b57600a6040518060a0016040528087815260200186815260200160038054600181600116156101000203166002900480601f0160208091040260200160405190810160405280929190818152602001828054600181600116156101000203166002900480156107a05780601f10610775576101008083540402835291602001916107a0565b820191906000526020600020905b81548152906001019060200180831161078357829003601f168201915b5050505050815260200185815260200184815250908060018154018082558091505090600182039060005260206000209060050201600090919290919091506000820151816000015560208201518160010190805190602001906108059291906116ea565b5060408201518160020190805190602001906108229291906116ea565b5060608201518160030155608082015181600401555050505b80806001019150506106be565b5050505050565b6008818154811061085c57fe5b9060005260206000209060030201600091509050806000018054600181600116156101000203166002900480601f0160208091040260200160405190810160405280929190818152602001828054600181600116156101000203166002900480156109085780601f106108dd57610100808354040283529160200191610908565b820191906000526020600020905b8154815290600101906020018083116108eb57829003601f168201915b5050505050908060010160009054906101000a900460ff16908060020154905083565b6009818154811061093857fe5b9060005260206000209060040201600091509050806000015490806001015490806002018054600181600116156101000203166002900480601f0160208091040260200160405190810160405280929190818152602001828054600181600116156101000203166002900480156109f05780601f106109c5576101008083540402835291602001916109f0565b820191906000526020600020905b8154815290600101906020018083116109d357829003601f168201915b5050505050908060030160009054906101000a900460ff16908060030160019054906101000a900460ff16905085565b600660009054906101000a900473ffffffffffffffffffffffffffffffffffffffff1673ffffffffffffffffffffffffffffffffffffffff163373ffffffffffffffffffffffffffffffffffffffff1614158015610acc5750600560009054906101000a900473ffffffffffffffffffffffffffffffffffffffff1673ffffffffffffffffffffffffffffffffffffffff163373ffffffffffffffffffffffffffffffffffffffff1614155b610ad557600080fd5b60008090505b600980549050811015610b4a578260098281548110610af657fe5b90600052602060002090600402016000015414158015610b3457508160098281548110610b1f57fe5b90600052602060002090600402016001015414155b610b3d57600080fd5b8080600101915050610adb565b5033600760006101000a81548173ffffffffffffffffffffffffffffffffffffffff021916908373ffffffffffffffffffffffffffffffffffffffff16021790555060096040518060a0016040528084815260200183815260200160028054600181600116156101000203166002900480601f016020809104026020016040519081016040528092919081815260200182805460018160011615610100020316600290048015610c3b5780601f10610c1057610100808354040283529160200191610c3b565b820191906000526020600020905b815481529060010190602001808311610c1e57829003601f168201915b50505050508152602001600115158152602001600015158152509080600181540180825580915050906001820390600052602060002090600402016000909192909190915060008201518160000155602082015181600101556040820151816002019080519060200190610cb09291906116ea565b5060608201518160030160006101000a81548160ff02191690831515021790555060808201518160030160016101000a81548160ff0219169083151502179055505050505050565b600660009054906101000a900473ffffffffffffffffffffffffffffffffffffffff1673ffffffffffffffffffffffffffffffffffffffff163373ffffffffffffffffffffffffffffffffffffffff1614158015610da45750600560009054906101000a900473ffffffffffffffffffffffffffffffffffffffff1673ffffffffffffffffffffffffffffffffffffffff163373ffffffffffffffffffffffffffffffffffffffff1614155b8015610dfe5750600760009054906101000a900473ffffffffffffffffffffffffffffffffffffffff1673ffffffffffffffffffffffffffffffffffffffff163373ffffffffffffffffffffffffffffffffffffffff1614155b610e0757600080fd5b6000600a8054905011610e1957600080fd5b33600460006101000a81548173ffffffffffffffffffffffffffffffffffffffff021916908373ffffffffffffffffffffffffffffffffffffffff16021790555060008090505b6009805490508110156110da5760008090505b600a805490508110156110cc578260098381548110610e8e57fe5b906000526020600020906004020160000154148015610eca575082600a8281548110610eb657fe5b906000526020600020906005020160030154145b156110bf577f335c1dca085b6548d14174ef7d3936da0c8f712aee994dcc6cc8590a66b1c3d8600a8381548110610efd57fe5b906000526020600020906005020160000154600a8481548110610f1c57fe5b9060005260206000209060050201600101600a8581548110610f3a57fe5b9060005260206000209060050201600201600a8681548110610f5857fe5b906000526020600020906005020160030154600a8781548110610f7757fe5b9060005260206000209060050201600401546040518086815260200180602001806020018581526020018481526020018381038352878181546001816001161561010002031660029004815260200191508054600181600116156101000203166002900480156110285780601f10610ffd57610100808354040283529160200191611028565b820191906000526020600020905b81548152906001019060200180831161100b57829003601f168201915b50508381038252868181546001816001161561010002031660029004815260200191508054600181600116156101000203166002900480156110ab5780601f10611080576101008083540402835291602001916110ab565b820191906000526020600020905b81548152906001019060200180831161108e57829003601f168201915b505097505050505050505060405180910390a15b8080600101915050610e73565b508080600101915050610e60565b5050565b600a81815481106110eb57fe5b9060005260206000209060050201600091509050806000015490806001018054600181600116156101000203166002900480601f01602080910402602001604051908101604052809291908181526020018280546001816001161561010002031660029004801561119d5780601f106111725761010080835404028352916020019161119d565b820191906000526020600020905b81548152906001019060200180831161118057829003601f168201915b505050505090806002018054600181600116156101000203166002900480601f01602080910402602001604051908101604052809291908181526020018280546001816001161561010002031660029004801561123b5780601f106112105761010080835404028352916020019161123b565b820191906000526020600020905b81548152906001019060200180831161121e57829003601f168201915b5050505050908060030154908060040154905085565b600660009054906101000a900473ffffffffffffffffffffffffffffffffffffffff1673ffffffffffffffffffffffffffffffffffffffff163373ffffffffffffffffffffffffffffffffffffffff16141580156112fd5750600760009054906101000a900473ffffffffffffffffffffffffffffffffffffffff1673ffffffffffffffffffffffffffffffffffffffff163373ffffffffffffffffffffffffffffffffffffffff1614155b61130657600080fd5b60006009805490501161131857600080fd5b60008090505b60098054905081101561139b57836009828154811061133957fe5b906000526020600020906004020160000154141561138e57600115156009828154811061136257fe5b906000526020600020906004020160030160009054906101000a900460ff1615151461138d57600080fd5b5b808060010191505061131e565b5033600560006101000a81548173ffffffffffffffffffffffffffffffffffffffff021916908373ffffffffffffffffffffffffffffffffffffffff16021790555060004290508115611568576008604051806060016040528085815260200184151581526020018381525090806001815401808255809150509060018203906000526020600020906003020160009091929091909150600082015181600001908051906020019061144e9291906116ea565b5060208201518160010160006101000a81548160ff0219169083151502179055506040820151816002015550505060008090505b60098054905081101561156257846009828154811061149d57fe5b9060005260206000209060040201600001541415611555576040518060400160405280600f81526020017f54657374205375636365737366756c0000000000000000000000000000000000815250600982815481106114f857fe5b9060005260206000209060040201600201908051906020019061151c92919061176a565b5060016009828154811061152c57fe5b906000526020600020906004020160030160016101000a81548160ff0219169083151502179055505b8080600101915050611482565b506116e4565b600860405180606001604052808581526020018415158152602001838152509080600181540180825580915050906001820390600052602060002090600302016000909192909190915060008201518160000190805190602001906115ce9291906116ea565b5060208201518160010160006101000a81548160ff0219169083151502179055506040820151816002015550505060008090505b6009805490508110156116e257846009828154811061161d57fe5b90600052602060002090600402016000015414156116d5576040518060400160405280600b81526020017f54657374204661696c65640000000000000000000000000000000000000000008152506009828154811061167857fe5b9060005260206000209060040201600201908051906020019061169c92919061176a565b506000600982815481106116ac57fe5b906000526020600020906004020160030160016101000a81548160ff0219169083151502179055505b8080600101915050611602565b505b50505050565b828054600181600116156101000203166002900490600052602060002090601f016020900481019282601f1061172b57805160ff1916838001178555611759565b82800160010185558215611759579182015b8281111561175857825182559160200191906001019061173d565b5b50905061176691906117ea565b5090565b828054600181600116156101000203166002900490600052602060002090601f016020900481019282601f106117ab57805160ff19168380011785556117d9565b828001600101855582156117d9579182015b828111156117d85782518255916020019190600101906117bd565b5b5090506117e691906117ea565b5090565b61180c91905b808211156118085760008160009055506001016117f0565b5090565b9056fea265627a7a7231582073999f012f3a36e93e3f3b43245605621255e83ebbf05f5d3c9c2ffda094b45064736f6c63430005100032",
  "source": "pragma solidity ^0.5.9;\n\ncontract SeedCertifi {\n    \n    string sci_name = \"Mr. Raja\";\n    uint sci_id = 1001;\n    string init = \"Init\";\n    string duration = \"9 months\";\n    struct Seed {\n        uint seed_id;\n        uint seed_lot;\n        string status;\n        bool entry_stat;\n        bool stl_test;\n    }\n    struct Test {\n        string code;\n        bool test;\n        uint date;\n    }\n    struct Cert{\n        uint cert_no;\n        string cert_by;\n        string validity;\n        uint seed_id;\n        uint seed_lot;\n    }\n    address seedGrower;\n    address stl;\n    address sca;\n    address spa;\n    event certifi(uint cert_no, string cert, string validity, uint seed_id, uint seed_lot);\n    Test[] public test;\n    Seed[] public seed;\n    Cert[] public cert;\n    \n    constructor() public {\n        sca = msg.sender;\n    }\n    \n    function viewCert(uint seed_id) public {\n        require(msg.sender != sca && msg.sender != stl && msg.sender != spa);\n        require(cert.length > 0);\n        seedGrower = msg.sender;\n        for(uint i=0;i<seed.length;i++){\n            for(uint j=0;j<cert.length;j++){\n                if(seed[i].seed_id == seed_id && cert[j].seed_id == seed_id){\n                    emit certifi(cert[i].cert_no, cert[i].cert_by, cert[i].validity, cert[i].seed_id, cert[i].seed_lot);\n                }       \n            }\n        }\n    }\n    function seed_entry(uint seed_id, uint seed_lot) public {\n        require(msg.sender != sca && msg.sender != stl);\n        for(uint i=0;i<seed.length;i++){\n            require(seed[i].seed_id != seed_id && seed[i].seed_lot != seed_lot);\n        }\n        spa = msg.sender;\n        seed.push(Seed(seed_id, seed_lot, init, true, false)); \n    }\n    \n    function seed_test(uint id, string memory secret_code, bool result) public {\n        require(msg.sender != sca && msg.sender != spa);\n        require(seed.length > 0);\n        for(uint j=0;j<seed.length;j++){\n            if(seed[j].seed_id == id){\n                require(seed[j].entry_stat == true);\n            }\n        }\n        stl = msg.sender;\n        uint date = block.timestamp;\n        if(result){\n            test.push(Test(secret_code, result, date));\n            for(uint i=0;i<seed.length;i++){\n                if(seed[i].seed_id == id){\n                    seed[i].status = \"Test Successful\";\n                    seed[i].stl_test = true;\n                }\n            }    \n        }\n        else{\n            test.push(Test(secret_code, result, date));\n            for(uint i=0;i<seed.length;i++){\n                if(seed[i].seed_id == id){\n                    seed[i].status = \"Test Failed\";\n                    seed[i].stl_test = false;\n                }\n            }   \n        }\n    }\n    \n    function certification(uint cert_no, string memory cert_by, uint id, uint seed_lot) public {\n        require(msg.sender != spa && msg.sender !=stl);\n        for(uint j=0;j<seed.length;j++){\n            if(seed[j].seed_id == id){\n                require(seed[j].stl_test == true);\n            }\n        }\n        sca = msg.sender;\n        for(uint i=0;i<seed.length;i++){\n            if(seed[i].seed_id == id){\n                    cert.push(Cert(cert_no, cert_by, duration, id, seed_lot));\n            }\n        }\n    }\n        \n}\n",
  "sourcePath": "/home/psyclone/Downloads/SeedCertifi14/contracts/SeedCertifi.sol",
  "compiler": {
    "name": "solc",
    "version": "0.5.16+commit.9c3226ce.Emscripten.clang"
  },
  "schemaVersion": "3.2.5",
  "updatedAt": "2020-11-01T06:09:44.837Z",
  "networkType": "ethereum",
  "devdoc": {
    "methods": {}
  },
  "userdoc": {
    "methods": {}
  }
}